{
  "address": "0x9D3DA37d36BB0B825CD319ed129c2872b893f538",
  "abi": [
    {
      "inputs": [
        {
          "internalType": "contract IDkimVerifier",
          "name": "verifier",
          "type": "address"
        }
      ],
      "stateMutability": "nonpayable",
      "type": "constructor"
    },
    {
      "inputs": [
        {
          "internalType": "bytes32",
          "name": "",
          "type": "bytes32"
        }
      ],
      "name": "nullifierHashes",
      "outputs": [
        {
          "internalType": "bool",
          "name": "",
          "type": "bool"
        }
      ],
      "stateMutability": "view",
      "type": "function"
    },
    {
      "inputs": [
        {
          "internalType": "string",
          "name": "typ",
          "type": "string"
        },
        {
          "internalType": "bytes",
          "name": "target",
          "type": "bytes"
        }
      ],
      "name": "subjectHex",
      "outputs": [
        {
          "internalType": "bytes",
          "name": "",
          "type": "bytes"
        }
      ],
      "stateMutability": "view",
      "type": "function"
    },
    {
      "inputs": [
        {
          "internalType": "bytes32",
          "name": "server",
          "type": "bytes32"
        },
        {
          "internalType": "bytes32",
          "name": "email",
          "type": "bytes32"
        },
        {
          "internalType": "bytes",
          "name": "data",
          "type": "bytes"
        },
        {
          "internalType": "bytes",
          "name": "signature",
          "type": "bytes"
        },
        {
          "internalType": "bytes",
          "name": "target",
          "type": "bytes"
        }
      ],
      "name": "validateDKIM",
      "outputs": [
        {
          "internalType": "bool",
          "name": "",
          "type": "bool"
        }
      ],
      "stateMutability": "nonpayable",
      "type": "function"
    }
  ],
  "transactionHash": "0xf85f193aec9f559c4417d49467de956a8878b36b42750a413f6efe7fc745c353",
  "args": [
    "0xf08e18e012ca32aaBD0a112ef6BB21381A9a2756"
  ],
  "numDeployments": 1,
  "solcInputHash": "ff46ff18f097826b419bb1f94cdcc540",
  "bytecode": "0x608060405234801561001057600080fd5b506040516111e03803806111e083398101604081905261002f91610054565b600180546001600160a01b0319166001600160a01b0392909216919091179055610084565b60006020828403121561006657600080fd5b81516001600160a01b038116811461007d57600080fd5b9392505050565b61114d806100936000396000f3fe608060405234801561001057600080fd5b50600436106100415760003560e01c806317cc915c14610046578063806e22121461007e578063f5399d641461009e575b600080fd5b610069610054366004610b90565b60006020819052908152604090205460ff1681565b60405190151581526020015b60405180910390f35b61009161008c366004610c6f565b6100b1565b6040516100759190610d22565b6100696100ac366004610d9e565b6102fa565b60606000825160026100c39190610e7a565b67ffffffffffffffff8111156100db576100db610ba9565b6040519080825280601f01601f191660200182016040528015610105576020820181803683370190505b5060408051808201909152601081527f3031323334353637383961626364656600000000000000000000000000000000602082015290915060005b84518110156102b85781825186838151811061015e5761015e610e91565b0160200151610170919060f81c610eef565b8151811061018057610180610e91565b01602001517fff0000000000000000000000000000000000000000000000000000000000000016836101b3836002610e7a565b815181106101c3576101c3610e91565b60200101907effffffffffffffffffffffffffffffffffffffffffffffffffffffffffffff1916908160001a90535081825186838151811061020757610207610e91565b0160200151610219919060f81c610f03565b8151811061022957610229610e91565b01602001517fff00000000000000000000000000000000000000000000000000000000000000168361025c836002610e7a565b610267906001610f17565b8151811061027757610277610e91565b60200101907effffffffffffffffffffffffffffffffffffffffffffffffffffffffffffff1916908160001a905350806102b081610f2a565b915050610140565b50846102c346610783565b6102cc30610841565b846040516020016102e09493929190610f62565b604051602081830303815290604052925050505b92915050565b600080878760405161030d929190610fb9565b604080519182900390912060008181526020819052919091205490915060ff1615610399576040517f08c379a000000000000000000000000000000000000000000000000000000000815260206004820152600f60248201527f7573656420656d61696c2064617461000000000000000000000000000000000060448201526064015b60405180910390fd5b6001546040517f391c87c800000000000000000000000000000000000000000000000000000000815260009173ffffffffffffffffffffffffffffffffffffffff169063391c87c8906103f2908c908c90600401610ff4565b600060405180830381865afa15801561040f573d6000803e3d6000fd5b505050506040513d6000823e601f3d908101601f191682016040526104379190810190611010565b905080805190602001208a146104a9576040517f08c379a000000000000000000000000000000000000000000000000000000000815260206004820152601160248201527f6572726f7220656d61696c206f776e65720000000000000000000000000000006044820152606401610390565b6001546040517f5bf48e3a00000000000000000000000000000000000000000000000000000000815273ffffffffffffffffffffffffffffffffffffffff90911690635bf48e3a90610507908e908d908d908d908d90600401611087565b602060405180830381865afa158015610524573d6000803e3d6000fd5b505050506040513d601f19601f8201168201806040525081019061054891906110c0565b6105ae576040517f08c379a000000000000000000000000000000000000000000000000000000000815260206004820152601460248201527f6572726f7220646b696d207369676e61747572650000000000000000000000006044820152606401610390565b6001546040517fa3364fd900000000000000000000000000000000000000000000000000000000815260009173ffffffffffffffffffffffffffffffffffffffff169063a3364fd990610607908d908d90600401610ff4565b600060405180830381865afa158015610624573d6000803e3d6000fd5b505050506040513d6000823e601f3d908101601f1916820160405261064c9190810190611010565b90506106c36040518060400160405280600281526020017f303100000000000000000000000000000000000000000000000000000000000081525087878080601f0160208091040260200160405190810160405280939291908181526020018383808284376000920191909152506100b192505050565b80519060200120818051906020012014610739576040517f08c379a000000000000000000000000000000000000000000000000000000000815260206004820152601a60248201527f6572726f7220656d61696c2074797065206f72207461726765740000000000006044820152606401610390565b5050600090815260208190526040902080547fffffffffffffffffffffffffffffffffffffffffffffffffffffffffffffff00166001908117909155905098975050505050505050565b6060600061079083610864565b600101905060008167ffffffffffffffff8111156107b0576107b0610ba9565b6040519080825280601f01601f1916602001820160405280156107da576020820181803683370190505b5090508181016020015b7fffffffffffffffffffffffffffffffffffffffffffffffffffffffffffffffff017f3031323334353637383961626364656600000000000000000000000000000000600a86061a8153600a85049450846107e457509392505050565b60606102f473ffffffffffffffffffffffffffffffffffffffff83166014610946565b6000807a184f03e93ff9f4daa797ed6e38ed64bf6a1f01000000000000000083106108ad577a184f03e93ff9f4daa797ed6e38ed64bf6a1f010000000000000000830492506040015b6d04ee2d6d415b85acef810000000083106108d9576d04ee2d6d415b85acef8100000000830492506020015b662386f26fc1000083106108f757662386f26fc10000830492506010015b6305f5e100831061090f576305f5e100830492506008015b612710831061092357612710830492506004015b60648310610935576064830492506002015b600a83106102f45760010192915050565b60606000610955836002610e7a565b610960906002610f17565b67ffffffffffffffff81111561097857610978610ba9565b6040519080825280601f01601f1916602001820160405280156109a2576020820181803683370190505b5090507f3000000000000000000000000000000000000000000000000000000000000000816000815181106109d9576109d9610e91565b60200101907effffffffffffffffffffffffffffffffffffffffffffffffffffffffffffff1916908160001a9053507f780000000000000000000000000000000000000000000000000000000000000081600181518110610a3c57610a3c610e91565b60200101907effffffffffffffffffffffffffffffffffffffffffffffffffffffffffffff1916908160001a9053506000610a78846002610e7a565b610a83906001610f17565b90505b6001811115610b20577f303132333435363738396162636465660000000000000000000000000000000085600f1660108110610ac457610ac4610e91565b1a60f81b828281518110610ada57610ada610e91565b60200101907effffffffffffffffffffffffffffffffffffffffffffffffffffffffffffff1916908160001a90535060049490941c93610b19816110e2565b9050610a86565b508315610b89576040517f08c379a000000000000000000000000000000000000000000000000000000000815260206004820181905260248201527f537472696e67733a20686578206c656e67746820696e73756666696369656e746044820152606401610390565b9392505050565b600060208284031215610ba257600080fd5b5035919050565b7f4e487b7100000000000000000000000000000000000000000000000000000000600052604160045260246000fd5b604051601f8201601f1916810167ffffffffffffffff81118282101715610c0157610c01610ba9565b604052919050565b600067ffffffffffffffff821115610c2357610c23610ba9565b50601f01601f191660200190565b6000610c44610c3f84610c09565b610bd8565b9050828152838383011115610c5857600080fd5b828260208301376000602084830101529392505050565b60008060408385031215610c8257600080fd5b823567ffffffffffffffff80821115610c9a57600080fd5b818501915085601f830112610cae57600080fd5b610cbd86833560208501610c31565b93506020850135915080821115610cd357600080fd5b508301601f81018513610ce557600080fd5b610cf485823560208401610c31565b9150509250929050565b60005b83811015610d19578181015183820152602001610d01565b50506000910152565b6020815260008251806020840152610d41816040850160208701610cfe565b601f01601f19169190910160400192915050565b60008083601f840112610d6757600080fd5b50813567ffffffffffffffff811115610d7f57600080fd5b602083019150836020828501011115610d9757600080fd5b9250929050565b60008060008060008060008060a0898b031215610dba57600080fd5b8835975060208901359650604089013567ffffffffffffffff80821115610de057600080fd5b610dec8c838d01610d55565b909850965060608b0135915080821115610e0557600080fd5b610e118c838d01610d55565b909650945060808b0135915080821115610e2a57600080fd5b50610e378b828c01610d55565b999c989b5096995094979396929594505050565b7f4e487b7100000000000000000000000000000000000000000000000000000000600052601160045260246000fd5b80820281158282048414176102f4576102f4610e4b565b7f4e487b7100000000000000000000000000000000000000000000000000000000600052603260045260246000fd5b7f4e487b7100000000000000000000000000000000000000000000000000000000600052601260045260246000fd5b600082610efe57610efe610ec0565b500490565b600082610f1257610f12610ec0565b500690565b808201808211156102f4576102f4610e4b565b60007fffffffffffffffffffffffffffffffffffffffffffffffffffffffffffffffff8203610f5b57610f5b610e4b565b5060010190565b60008551610f74818460208a01610cfe565b855190830190610f88818360208a01610cfe565b8551910190610f9b818360208901610cfe565b8451910190610fae818360208801610cfe565b019695505050505050565b8183823760009101908152919050565b818352818160208501375060006020828401015260006020601f19601f840116840101905092915050565b602081526000611008602083018486610fc9565b949350505050565b60006020828403121561102257600080fd5b815167ffffffffffffffff81111561103957600080fd5b8201601f8101841361104a57600080fd5b8051611058610c3f82610c09565b81815285602083850101111561106d57600080fd5b61107e826020830160208601610cfe565b95945050505050565b8581526060602082015260006110a1606083018688610fc9565b82810360408401526110b4818587610fc9565b98975050505050505050565b6000602082840312156110d257600080fd5b81518015158114610b8957600080fd5b6000816110f1576110f1610e4b565b507fffffffffffffffffffffffffffffffffffffffffffffffffffffffffffffffff019056fea264697066735822122065e0a488b60e8e7f95fd5a9c0f4c5eb1f9358b00da4ef53a03611266a7c1032f64736f6c63430008110033",
  "devdoc": {
    "kind": "dev",
    "methods": {},
    "version": 1
  },
  "userdoc": {
    "kind": "user",
    "methods": {},
    "version": 1
  },
  "storageLayout": {
    "storage": [
      {
        "astId": 1210,
        "contract": "src/EmailGuardian.sol:EmailGuardian",
        "label": "nullifierHashes",
        "offset": 0,
        "slot": "0",
        "type": "t_mapping(t_bytes32,t_bool)"
      },
      {
        "astId": 1213,
        "contract": "src/EmailGuardian.sol:EmailGuardian",
        "label": "_dkimVerifier",
        "offset": 0,
        "slot": "1",
        "type": "t_contract(IDkimVerifier)1439"
      }
    ],
    "types": {
      "t_bool": {
        "encoding": "inplace",
        "label": "bool",
        "numberOfBytes": "1"
      },
      "t_bytes32": {
        "encoding": "inplace",
        "label": "bytes32",
        "numberOfBytes": "32"
      },
      "t_contract(IDkimVerifier)1439": {
        "encoding": "inplace",
        "label": "contract IDkimVerifier",
        "numberOfBytes": "20"
      },
      "t_mapping(t_bytes32,t_bool)": {
        "encoding": "mapping",
        "key": "t_bytes32",
        "label": "mapping(bytes32 => bool)",
        "numberOfBytes": "32",
        "value": "t_bool"
      }
    }
  }
}