{
  "address": "0x9D3DA37d36BB0B825CD319ed129c2872b893f538",
  "abi": [
    {
      "inputs": [
        {
          "internalType": "contract IEntryPoint",
          "name": "_entryPoint",
          "type": "address"
        },
        {
          "internalType": "contract IVerifier",
          "name": "_verifier",
          "type": "address"
        },
        {
          "internalType": "contract INameWrapper",
          "name": "_nameWrapper",
          "type": "address"
        },
        {
          "internalType": "contract IResolver",
          "name": "_resolver",
          "type": "address"
        },
        {
          "internalType": "contract IReverseRegistrar",
          "name": "_reverseRegistrar",
          "type": "address"
        },
        {
          "internalType": "string",
          "name": "_baseName",
          "type": "string"
        },
        {
          "internalType": "bytes32",
          "name": "_baseNode",
          "type": "bytes32"
        }
      ],
      "stateMutability": "nonpayable",
      "type": "constructor"
    },
    {
      "anonymous": false,
      "inputs": [
        {
          "indexed": true,
          "internalType": "address",
          "name": "previousOwner",
          "type": "address"
        },
        {
          "indexed": true,
          "internalType": "address",
          "name": "newOwner",
          "type": "address"
        }
      ],
      "name": "OwnershipTransferred",
      "type": "event"
    },
    {
      "inputs": [],
      "name": "accountImplementation",
      "outputs": [
        {
          "internalType": "contract ZKPassAccount",
          "name": "",
          "type": "address"
        }
      ],
      "stateMutability": "view",
      "type": "function"
    },
    {
      "inputs": [],
      "name": "baseName",
      "outputs": [
        {
          "internalType": "string",
          "name": "",
          "type": "string"
        }
      ],
      "stateMutability": "view",
      "type": "function"
    },
    {
      "inputs": [],
      "name": "baseNode",
      "outputs": [
        {
          "internalType": "bytes32",
          "name": "",
          "type": "bytes32"
        }
      ],
      "stateMutability": "view",
      "type": "function"
    },
    {
      "inputs": [
        {
          "internalType": "string",
          "name": "label",
          "type": "string"
        },
        {
          "internalType": "uint256",
          "name": "passHash",
          "type": "uint256"
        }
      ],
      "name": "createAccount",
      "outputs": [
        {
          "internalType": "contract ZKPassAccount",
          "name": "ret",
          "type": "address"
        }
      ],
      "stateMutability": "nonpayable",
      "type": "function"
    },
    {
      "inputs": [
        {
          "internalType": "string",
          "name": "label",
          "type": "string"
        },
        {
          "internalType": "uint256",
          "name": "passHash",
          "type": "uint256"
        }
      ],
      "name": "getAddress",
      "outputs": [
        {
          "internalType": "address",
          "name": "",
          "type": "address"
        }
      ],
      "stateMutability": "view",
      "type": "function"
    },
    {
      "inputs": [],
      "name": "nameWrapper",
      "outputs": [
        {
          "internalType": "contract INameWrapper",
          "name": "",
          "type": "address"
        }
      ],
      "stateMutability": "view",
      "type": "function"
    },
    {
      "inputs": [
        {
          "internalType": "address",
          "name": "",
          "type": "address"
        },
        {
          "internalType": "address",
          "name": "",
          "type": "address"
        },
        {
          "internalType": "uint256",
          "name": "",
          "type": "uint256"
        },
        {
          "internalType": "uint256",
          "name": "",
          "type": "uint256"
        },
        {
          "internalType": "bytes",
          "name": "",
          "type": "bytes"
        }
      ],
      "name": "onERC1155Received",
      "outputs": [
        {
          "internalType": "bytes4",
          "name": "",
          "type": "bytes4"
        }
      ],
      "stateMutability": "pure",
      "type": "function"
    },
    {
      "inputs": [],
      "name": "owner",
      "outputs": [
        {
          "internalType": "address",
          "name": "",
          "type": "address"
        }
      ],
      "stateMutability": "view",
      "type": "function"
    },
    {
      "inputs": [],
      "name": "renounceOwnership",
      "outputs": [],
      "stateMutability": "nonpayable",
      "type": "function"
    },
    {
      "inputs": [],
      "name": "resolver",
      "outputs": [
        {
          "internalType": "contract IResolver",
          "name": "",
          "type": "address"
        }
      ],
      "stateMutability": "view",
      "type": "function"
    },
    {
      "inputs": [],
      "name": "reverseRegistrar",
      "outputs": [
        {
          "internalType": "contract IReverseRegistrar",
          "name": "",
          "type": "address"
        }
      ],
      "stateMutability": "view",
      "type": "function"
    },
    {
      "inputs": [
        {
          "internalType": "address",
          "name": "newOwner",
          "type": "address"
        }
      ],
      "name": "transferOwnership",
      "outputs": [],
      "stateMutability": "nonpayable",
      "type": "function"
    }
  ],
  "transactionHash": "0xfd3b68581169f63f66d15e58a868bce52ffa63967e0193b12f06b1015436746b",
  "args": [
    "0x16653fF93F0e5fEF85CE46862562a4c58B05435E",
    "0x43cA9bAe8dF108684E5EAaA720C25e1b32B0A075",
    "0x92f0926350268a0147E36c4Dfbc4c72Eb11696cF",
    "0x919f2508389c59fe6E896f80c2B70ff53877942B",
    "0x5A54492239cA85a6d17E5FC11441B8545ee8980b",
    ".test002.io",
    "0x6d863ea9901410b6fe6a27c7ab4ceb36a23b029f66979b3d473f54b378c66b33"
  ],
  "numDeployments": 1,
  "solcInputHash": "06b635b020e547ce69d2fddf6a164e3f",
  "bytecode": "0x6101206040523480156200001257600080fd5b50604051620044e2380380620044e283398101604081905262000035916200015c565b6200004033620000cf565b60016200004e838262000336565b506101008190526001600160a01b0380861660805283811660c052841660a0526040518790879062000080906200011f565b6001600160a01b03928316815291166020820152604001604051809103906000f080158015620000b4573d6000803e3d6000fd5b506001600160a01b031660e052506200040295505050505050565b600080546001600160a01b038381166001600160a01b0319831681178455604051919092169283917f8be0079c531659141344cd1fd0a4f28419497f9722a3daafe3b4186f6b6457e09190a35050565b6125408062001fa283390190565b6001600160a01b03811681146200014357600080fd5b50565b634e487b7160e01b600052604160045260246000fd5b600080600080600080600060e0888a0312156200017857600080fd5b875162000185816200012d565b809750506020808901516200019a816200012d565b60408a0151909750620001ad816200012d565b60608a0151909650620001c0816200012d565b60808a0151909550620001d3816200012d565b60a08a01519094506001600160401b0380821115620001f157600080fd5b818b0191508b601f8301126200020657600080fd5b8151818111156200021b576200021b62000146565b604051601f8201601f19908116603f0116810190838211818310171562000246576200024662000146565b816040528281528e868487010111156200025f57600080fd5b600093505b8284101562000283578484018601518185018701529285019262000264565b600086848301015280975050505050505060c0880151905092959891949750929550565b600181811c90821680620002bc57607f821691505b602082108103620002dd57634e487b7160e01b600052602260045260246000fd5b50919050565b601f8211156200033157600081815260208120601f850160051c810160208610156200030c5750805b601f850160051c820191505b818110156200032d5782815560010162000318565b5050505b505050565b81516001600160401b0381111562000352576200035262000146565b6200036a81620003638454620002a7565b84620002e3565b602080601f831160018114620003a25760008415620003895750858301515b600019600386901b1c1916600185901b1785556200032d565b600085815260208120601f198616915b82811015620003d357888601518255948401946001909101908401620003b2565b5085821015620003f25787850151600019600388901b60f8161c191681555b5050505050600190811b01905550565b60805160a05160c05160e05161010051611b01620004a16000396000818161022c01528181610389015281816105370152818161085b0152610afe0152600081816101420152818161041c01526107370152600081816101bd01526109a901526000818160f0015281816108810152818161094901526109e7015260008181610204015281816105890152818161082d0152610ad00152611b016000f3fe60806040523480156200001157600080fd5b5060043610620000e55760003560e01c806380869853116200008b578063ddf7fcb01162000062578063ddf7fcb01462000226578063f23a6e61146200025d578063f2fde38b14620002cb57600080fd5b80638086985314620001b75780638da5cb5b14620001df578063a8e5fbc014620001fe57600080fd5b806321ec125311620000c057806321ec1253146200017d5780636586ace61462000194578063715018a614620001ab57600080fd5b806304f3bcec14620000ea57806311464fbe146200013c578063150306331462000164575b600080fd5b620001127f000000000000000000000000000000000000000000000000000000000000000081565b60405173ffffffffffffffffffffffffffffffffffffffff90911681526020015b60405180910390f35b620001127f000000000000000000000000000000000000000000000000000000000000000081565b6200016e620002e2565b60405162000133919062000df6565b620001126200018e36600462000e3a565b62000378565b62000112620001a536600462000e3a565b620004ef565b620001b562000b87565b005b620001127f000000000000000000000000000000000000000000000000000000000000000081565b60005473ffffffffffffffffffffffffffffffffffffffff1662000112565b620001127f000000000000000000000000000000000000000000000000000000000000000081565b6200024e7f000000000000000000000000000000000000000000000000000000000000000081565b60405190815260200162000133565b620002996200026e36600462000f1c565b7ff23a6e61000000000000000000000000000000000000000000000000000000009695505050505050565b6040517fffffffff00000000000000000000000000000000000000000000000000000000909116815260200162000133565b620001b5620002dc36600462000fcf565b62000b9f565b60018054620002f19062000fef565b80601f01602080910402602001604051908101604052809291908181526020018280546200031f9062000fef565b8015620003705780601f10620003445761010080835404028352916020019162000370565b820191906000526020600020905b8154815290600101906020018083116200035257829003601f168201915b505050505081565b8151602083012060009081620003d57f000000000000000000000000000000000000000000000000000000000000000083604080516020808201949094528082019290925280518083038201815260609092019052805191012090565b9050620004e46000801b60405180602001620003f19062000d94565b601f1982820381018352601f90910116604081905260248101859052604481018890523060648201527f00000000000000000000000000000000000000000000000000000000000000009060840160408051601f19818403018152918152602080830180517bffffffffffffffffffffffffffffffffffffffffffffffffffffffff167fc62b428e000000000000000000000000000000000000000000000000000000001790529051620004a89392910162001044565b60408051601f1981840301815290829052620004c892916020016200107d565b6040516020818303038152906040528051906020012062000c5c565b925050505b92915050565b600080620004fe848462000378565b905073ffffffffffffffffffffffffffffffffffffffff81163b80156200052857509050620004e9565b845160208601206000620005837f000000000000000000000000000000000000000000000000000000000000000083604080516020808201949094528082019290925280518083038201815260609092019052805191012090565b905060007f000000000000000000000000000000000000000000000000000000000000000073ffffffffffffffffffffffffffffffffffffffff16636f14a0d16040518163ffffffff1660e01b8152600401602060405180830381865afa158015620005f3573d6000803e3d6000fd5b505050506040513d601f19601f82011682018060405250810190620006199190620010b0565b6040517ff79fe5380000000000000000000000000000000000000000000000000000000081526004810184905290915073ffffffffffffffffffffffffffffffffffffffff82169063f79fe53890602401602060405180830381865afa15801562000688573d6000803e3d6000fd5b505050506040513d601f19601f82011682018060405250810190620006ae9190620010d0565b156200071b576040517f08c379a000000000000000000000000000000000000000000000000000000000815260206004820152601760248201527f6e616d6520616c7265616479207265676973746572656400000000000000000060448201526064015b60405180910390fd5b60405160248101839052604481018890523060648201526000907f00000000000000000000000000000000000000000000000000000000000000009060840160408051601f198184030181529181526020820180517bffffffffffffffffffffffffffffffffffffffffffffffffffffffff167fc62b428e0000000000000000000000000000000000000000000000000000000017905251620007be9062000d94565b620007cb92919062001044565b8190604051809103906000f5905080158015620007ec573d6000803e3d6000fd5b506040517f24c1af4400000000000000000000000000000000000000000000000000000000815290965073ffffffffffffffffffffffffffffffffffffffff7f000000000000000000000000000000000000000000000000000000000000000016906324c1af4490620008b6907f0000000000000000000000000000000000000000000000000000000000000000908c9030907f00000000000000000000000000000000000000000000000000000000000000009060009081906402540be3ff90600401620010f4565b6020604051808303816000875af1158015620008d6573d6000803e3d6000fd5b505050506040513d601f19601f82011682018060405250810190620008fc919062001164565b506040517fd5fa2b000000000000000000000000000000000000000000000000000000000081526004810183905273ffffffffffffffffffffffffffffffffffffffff87811660248301527f0000000000000000000000000000000000000000000000000000000000000000169063d5fa2b0090604401600060405180830381600087803b1580156200098e57600080fd5b505af1158015620009a3573d6000803e3d6000fd5b505050507f000000000000000000000000000000000000000000000000000000000000000073ffffffffffffffffffffffffffffffffffffffff16637a806d6b87887f00000000000000000000000000000000000000000000000000000000000000008c600160405160200162000a1c9291906200117e565b6040516020818303038152906040526040518563ffffffff1660e01b815260040162000a4c949392919062001273565b6020604051808303816000875af115801562000a6c573d6000803e3d6000fd5b505050506040513d601f19601f8201168201806040525081019062000a92919062001164565b506040517fc658e08600000000000000000000000000000000000000000000000000000000815273ffffffffffffffffffffffffffffffffffffffff7f0000000000000000000000000000000000000000000000000000000000000000169063c658e0869062000b35907f0000000000000000000000000000000000000000000000000000000000000000908c908b906000906402540be3ff90600401620012c0565b6020604051808303816000875af115801562000b55573d6000803e3d6000fd5b505050506040513d601f19601f8201168201806040525081019062000b7b919062001164565b50505050505092915050565b62000b9162000c72565b62000b9d600062000cf5565b565b62000ba962000c72565b73ffffffffffffffffffffffffffffffffffffffff811662000c4e576040517f08c379a000000000000000000000000000000000000000000000000000000000815260206004820152602660248201527f4f776e61626c653a206e6577206f776e657220697320746865207a65726f206160448201527f6464726573730000000000000000000000000000000000000000000000000000606482015260840162000712565b62000c598162000cf5565b50565b600062000c6b83833062000d6a565b9392505050565b60005473ffffffffffffffffffffffffffffffffffffffff16331462000b9d576040517f08c379a000000000000000000000000000000000000000000000000000000000815260206004820181905260248201527f4f776e61626c653a2063616c6c6572206973206e6f7420746865206f776e6572604482015260640162000712565b6000805473ffffffffffffffffffffffffffffffffffffffff8381167fffffffffffffffffffffffff0000000000000000000000000000000000000000831681178455604051919092169283917f8be0079c531659141344cd1fd0a4f28419497f9722a3daafe3b4186f6b6457e09190a35050565b6000604051836040820152846020820152828152600b8101905060ff815360559020949350505050565b6107ad806200131f83390190565b60005b8381101562000dbf57818101518382015260200162000da5565b50506000910152565b6000815180845262000de281602086016020860162000da2565b601f01601f19169290920160200192915050565b60208152600062000c6b602083018462000dc8565b7f4e487b7100000000000000000000000000000000000000000000000000000000600052604160045260246000fd5b6000806040838503121562000e4e57600080fd5b823567ffffffffffffffff8082111562000e6757600080fd5b818501915085601f83011262000e7c57600080fd5b81358181111562000e915762000e9162000e0b565b604051601f8201601f19908116603f0116810190838211818310171562000ebc5762000ebc62000e0b565b8160405282815288602084870101111562000ed657600080fd5b826020860160208301376000602093820184015298969091013596505050505050565b73ffffffffffffffffffffffffffffffffffffffff8116811462000c5957600080fd5b60008060008060008060a0878903121562000f3657600080fd5b863562000f438162000ef9565b9550602087013562000f558162000ef9565b94506040870135935060608701359250608087013567ffffffffffffffff8082111562000f8157600080fd5b818901915089601f83011262000f9657600080fd5b81358181111562000fa657600080fd5b8a602082850101111562000fb957600080fd5b6020830194508093505050509295509295509295565b60006020828403121562000fe257600080fd5b813562000c6b8162000ef9565b600181811c908216806200100457607f821691505b6020821081036200103e577f4e487b7100000000000000000000000000000000000000000000000000000000600052602260045260246000fd5b50919050565b73ffffffffffffffffffffffffffffffffffffffff8316815260406020820152600062001075604083018462000dc8565b949350505050565b600083516200109181846020880162000da2565b835190830190620010a781836020880162000da2565b01949350505050565b600060208284031215620010c357600080fd5b815162000c6b8162000ef9565b600060208284031215620010e357600080fd5b8151801515811462000c6b57600080fd5b87815260e0602082015260006200110f60e083018962000dc8565b73ffffffffffffffffffffffffffffffffffffffff978816604084015295909616606082015267ffffffffffffffff938416608082015263ffffffff9290921660a083015290911660c0909101529392505050565b6000602082840312156200117757600080fd5b5051919050565b60008351602062001193828583890162000da2565b845491840191600090600181811c9080831680620011b257607f831692505b8583108103620011e9577f4e487b710000000000000000000000000000000000000000000000000000000085526022600452602485fd5b808015620012005760018114620012345762001263565b7fffffffffffffffffffffffffffffffffffffffffffffffffffffffffffffff008516885283151584028801955062001263565b60008b81526020902060005b858110156200125b5781548a82015290840190880162001240565b505083880195505b50939a9950505050505050505050565b600073ffffffffffffffffffffffffffffffffffffffff8087168352808616602084015280851660408401525060806060830152620012b6608083018462000dc8565b9695505050505050565b85815260a060208201526000620012db60a083018762000dc8565b73ffffffffffffffffffffffffffffffffffffffff9590951660408301525063ffffffff92909216606083015267ffffffffffffffff166080909101529291505056fe60806040526040516107ad3803806107ad83398101604081905261002291610319565b61002e82826000610035565b5050610436565b61003e8361006b565b60008251118061004b5750805b156100665761006483836100ab60201b6100291760201c565b505b505050565b610074816100d7565b6040516001600160a01b038216907fbc7cd75a20ee27fd9adebab32041f755214dbc6bffa90cc0225b39da2e5c2d3b90600090a250565b60606100d08383604051806060016040528060278152602001610786602791396101a9565b9392505050565b6100ea8161022260201b6100551760201c565b6101515760405162461bcd60e51b815260206004820152602d60248201527f455243313936373a206e657720696d706c656d656e746174696f6e206973206e60448201526c1bdd08184818dbdb9d1c9858dd609a1b60648201526084015b60405180910390fd5b806101887f360894a13ba1a3210667c828492db98dca3e2076cc3735a920a3ca505d382bbc60001b61023160201b6100711760201c565b80546001600160a01b0319166001600160a01b039290921691909117905550565b6060600080856001600160a01b0316856040516101c691906103e7565b600060405180830381855af49150503d8060008114610201576040519150601f19603f3d011682016040523d82523d6000602084013e610206565b606091505b50909250905061021886838387610234565b9695505050505050565b6001600160a01b03163b151590565b90565b606083156102a357825160000361029c576001600160a01b0385163b61029c5760405162461bcd60e51b815260206004820152601d60248201527f416464726573733a2063616c6c20746f206e6f6e2d636f6e74726163740000006044820152606401610148565b50816102ad565b6102ad83836102b5565b949350505050565b8151156102c55781518083602001fd5b8060405162461bcd60e51b81526004016101489190610403565b634e487b7160e01b600052604160045260246000fd5b60005b838110156103105781810151838201526020016102f8565b50506000910152565b6000806040838503121561032c57600080fd5b82516001600160a01b038116811461034357600080fd5b60208401519092506001600160401b038082111561036057600080fd5b818501915085601f83011261037457600080fd5b815181811115610386576103866102df565b604051601f8201601f19908116603f011681019083821181831017156103ae576103ae6102df565b816040528281528860208487010111156103c757600080fd5b6103d88360208301602088016102f5565b80955050505050509250929050565b600082516103f98184602087016102f5565b9190910192915050565b60208152600082518060208401526104228160408501602087016102f5565b601f01601f19169190910160400192915050565b610341806104456000396000f3fe60806040523661001357610011610017565b005b6100115b610027610022610074565b6100b9565b565b606061004e83836040518060600160405280602781526020016102e5602791396100dd565b9392505050565b73ffffffffffffffffffffffffffffffffffffffff163b151590565b90565b60006100b47f360894a13ba1a3210667c828492db98dca3e2076cc3735a920a3ca505d382bbc5473ffffffffffffffffffffffffffffffffffffffff1690565b905090565b3660008037600080366000845af43d6000803e8080156100d8573d6000f35b3d6000fd5b60606000808573ffffffffffffffffffffffffffffffffffffffff16856040516101079190610277565b600060405180830381855af49150503d8060008114610142576040519150601f19603f3d011682016040523d82523d6000602084013e610147565b606091505b509150915061015886838387610162565b9695505050505050565b606083156101fd5782516000036101f65773ffffffffffffffffffffffffffffffffffffffff85163b6101f6576040517f08c379a000000000000000000000000000000000000000000000000000000000815260206004820152601d60248201527f416464726573733a2063616c6c20746f206e6f6e2d636f6e747261637400000060448201526064015b60405180910390fd5b5081610207565b610207838361020f565b949350505050565b81511561021f5781518083602001fd5b806040517f08c379a00000000000000000000000000000000000000000000000000000000081526004016101ed9190610293565b60005b8381101561026e578181015183820152602001610256565b50506000910152565b60008251610289818460208701610253565b9190910192915050565b60208152600082518060208401526102b2816040850160208701610253565b601f017fffffffffffffffffffffffffffffffffffffffffffffffffffffffffffffffe016919091016040019291505056fe416464726573733a206c6f772d6c6576656c2064656c65676174652063616c6c206661696c6564a26469706673582212208c8e215c4f138670f5b128026bfe0933b1f89c0477988e2c7ebbc6b4dfe6208264736f6c63430008110033416464726573733a206c6f772d6c6576656c2064656c65676174652063616c6c206661696c6564a2646970667358221220e762358aa5829724cb438dbb2cff5afb832bf2d8f30a2ba5cfd94bbb6155c81a64736f6c63430008110033610100604052306080527f30644e72e131a029b85045b68181585d2833e84879b9709143e1f593f000000160a0523480156200003a57600080fd5b5060405162002540380380620025408339810160408190526200005d916200008e565b6001600160a01b0391821660c0521660e052620000cd565b6001600160a01b03811681146200008b57600080fd5b50565b60008060408385031215620000a257600080fd5b8251620000af8162000075565b6020840151909250620000c28162000075565b809150509250929050565b60805160a05160c05160e0516123e56200015b600039600081816102850152610e7f0152600081816103e0015281816108fc015281816109d601528181610f9d0152818161117601528181611270015281816112b701526115da01526000610ded015260008181610718015281816107ae01528181610a9a01528181610b300152610c5f01526123e56000f3fe6080604052600436106101785760003560e01c806361c6ceef116100cb578063bc197c811161007f578063d087d28811610059578063d087d288146104a1578063f172a4ce146104b6578063f23a6e61146104cc57600080fd5b8063bc197c8114610424578063c399ec881461046c578063c62b428e1461048157600080fd5b8063a13de389116100b0578063a13de389146103bb578063b0d691fe146103d1578063b61d27f61461040457600080fd5b806361c6ceef146103685780638da5cb5b1461038857600080fd5b80633659cfe61161012d5780634d44560d116101075780634d44560d146103205780634f1ef2861461034057806352d1902d1461035357600080fd5b80633659cfe6146102ca5780633a871cdd146102ea5780634a58db191461031857600080fd5b8063150b7a021161015e578063150b7a02146101e057806318dfb3c7146102565780632b7ac3f31461027657600080fd5b806223de291461018457806301ffc9a7146101ab57600080fd5b3661017f57005b600080fd5b34801561019057600080fd5b506101a961019f366004611a55565b5050505050505050565b005b3480156101b757600080fd5b506101cb6101c6366004611b06565b610512565b60405190151581526020015b60405180910390f35b3480156101ec57600080fd5b506102256101fb366004611b48565b7f150b7a020000000000000000000000000000000000000000000000000000000095945050505050565b6040517fffffffff0000000000000000000000000000000000000000000000000000000090911681526020016101d7565b34801561026257600080fd5b506101a9610271366004611c00565b6105f7565b34801561028257600080fd5b507f00000000000000000000000000000000000000000000000000000000000000005b60405173ffffffffffffffffffffffffffffffffffffffff90911681526020016101d7565b3480156102d657600080fd5b506101a96102e5366004611c6c565b610701565b3480156102f657600080fd5b5061030a610305366004611c89565b6108d2565b6040519081526020016101d7565b6101a96108f8565b34801561032c57600080fd5b506101a961033b366004611cdd565b610985565b6101a961034e366004611d38565b610a83565b34801561035f57600080fd5b5061030a610c45565b34801561037457600080fd5b506101cb610383366004611e1a565b610d17565b34801561039457600080fd5b506000546102a59062010000900473ffffffffffffffffffffffffffffffffffffffff1681565b3480156103c757600080fd5b5061030a60025481565b3480156103dd57600080fd5b507f00000000000000000000000000000000000000000000000000000000000000006102a5565b34801561041057600080fd5b506101a961041f366004611e66565b610f08565b34801561043057600080fd5b5061022561043f366004611eb6565b7fbc197c810000000000000000000000000000000000000000000000000000000098975050505050505050565b34801561047857600080fd5b5061030a610f57565b34801561048d57600080fd5b506101a961049c366004611f54565b61100e565b3480156104ad57600080fd5b5061030a611223565b3480156104c257600080fd5b5061030a60015481565b3480156104d857600080fd5b506102256104e7366004611f8d565b7ff23a6e61000000000000000000000000000000000000000000000000000000009695505050505050565b60007fffffffff0000000000000000000000000000000000000000000000000000000082167f150b7a020000000000000000000000000000000000000000000000000000000014806105a557507fffffffff0000000000000000000000000000000000000000000000000000000082167f4e2312e000000000000000000000000000000000000000000000000000000000145b806105f157507fffffffff0000000000000000000000000000000000000000000000000000000082167f01ffc9a700000000000000000000000000000000000000000000000000000000145b92915050565b6105ff61129f565b8281146106535760405162461bcd60e51b815260206004820152601360248201527f77726f6e67206172726179206c656e677468730000000000000000000000000060448201526064015b60405180910390fd5b60005b838110156106fa576106e885858381811061067357610673612009565b90506020020160208101906106889190611c6c565b600085858581811061069c5761069c612009565b90506020028101906106ae9190612038565b8080601f01602080910402602001604051908101604052809392919081815260200183838082843760009201919091525061132692505050565b806106f28161209d565b915050610656565b5050505050565b73ffffffffffffffffffffffffffffffffffffffff7f00000000000000000000000000000000000000000000000000000000000000001630036107ac5760405162461bcd60e51b815260206004820152602c60248201527f46756e6374696f6e206d7573742062652063616c6c6564207468726f7567682060448201527f64656c656761746563616c6c0000000000000000000000000000000000000000606482015260840161064a565b7f000000000000000000000000000000000000000000000000000000000000000073ffffffffffffffffffffffffffffffffffffffff166108217f360894a13ba1a3210667c828492db98dca3e2076cc3735a920a3ca505d382bbc5473ffffffffffffffffffffffffffffffffffffffff1690565b73ffffffffffffffffffffffffffffffffffffffff16146108aa5760405162461bcd60e51b815260206004820152602c60248201527f46756e6374696f6e206d7573742062652063616c6c6564207468726f7567682060448201527f6163746976652070726f78790000000000000000000000000000000000000000606482015260840161064a565b6108b3816113a3565b604080516000808252602082019092526108cf918391906113f2565b50565b60006108dc6115c2565b6108e68484611647565b90506108f182611675565b9392505050565b60007f000000000000000000000000000000000000000000000000000000000000000073ffffffffffffffffffffffffffffffffffffffff163460405160006040518083038185875af1925050503d8060008114610972576040519150601f19603f3d011682016040523d82523d6000602084013e610977565b606091505b50509050806108cf57600080fd5b3033146109d45760405162461bcd60e51b815260206004820152600a60248201527f6f6e6c79206f776e657200000000000000000000000000000000000000000000604482015260640161064a565b7f00000000000000000000000000000000000000000000000000000000000000006040517f205c287800000000000000000000000000000000000000000000000000000000815273ffffffffffffffffffffffffffffffffffffffff848116600483015260248201849052919091169063205c287890604401600060405180830381600087803b158015610a6757600080fd5b505af1158015610a7b573d6000803e3d6000fd5b505050505050565b73ffffffffffffffffffffffffffffffffffffffff7f0000000000000000000000000000000000000000000000000000000000000000163003610b2e5760405162461bcd60e51b815260206004820152602c60248201527f46756e6374696f6e206d7573742062652063616c6c6564207468726f7567682060448201527f64656c656761746563616c6c0000000000000000000000000000000000000000606482015260840161064a565b7f000000000000000000000000000000000000000000000000000000000000000073ffffffffffffffffffffffffffffffffffffffff16610ba37f360894a13ba1a3210667c828492db98dca3e2076cc3735a920a3ca505d382bbc5473ffffffffffffffffffffffffffffffffffffffff1690565b73ffffffffffffffffffffffffffffffffffffffff1614610c2c5760405162461bcd60e51b815260206004820152602c60248201527f46756e6374696f6e206d7573742062652063616c6c6564207468726f7567682060448201527f6163746976652070726f78790000000000000000000000000000000000000000606482015260840161064a565b610c35826113a3565b610c41828260016113f2565b5050565b60003073ffffffffffffffffffffffffffffffffffffffff7f00000000000000000000000000000000000000000000000000000000000000001614610cf25760405162461bcd60e51b815260206004820152603860248201527f555550535570677261646561626c653a206d757374206e6f742062652063616c60448201527f6c6564207468726f7567682064656c656761746563616c6c0000000000000000606482015260840161064a565b507f360894a13ba1a3210667c828492db98dca3e2076cc3735a920a3ca505d382bbc90565b6000610d2161199f565b610d296119bd565b610d3161199f565b6000806000806000806000808e8e60009061010092610d52939291906120fc565b810190610d5f9190612126565b6040805180820182529889526020808a019890985280516080810182528082019788526060810196909652958552855180870187529384528387019290925283860192909252835180850190945290835292820192909252919c509a50985060009750610ddd96508d955061010094508593508e92506120fc915050565b610de69161217b565b9050610e127f0000000000000000000000000000000000000000000000000000000000000000876121b7565b9550600060405180608001604052806002548152602001838152602001610e37611223565b81526020018890526040517f5fe8c13b00000000000000000000000000000000000000000000000000000000815290915073ffffffffffffffffffffffffffffffffffffffff7f00000000000000000000000000000000000000000000000000000000000000001690635fe8c13b90610eba908890889088908790600401612215565b602060405180830381865afa158015610ed7573d6000803e3d6000fd5b505050506040513d601f19601f82011682018060405250810190610efb91906122bc565b9998505050505050505050565b610f1061129f565b610f51848484848080601f01602080910402602001604051908101604052809392919081815260200183838082843760009201919091525061132692505050565b50505050565b6040517f70a0823100000000000000000000000000000000000000000000000000000000815230600482015260009073ffffffffffffffffffffffffffffffffffffffff7f000000000000000000000000000000000000000000000000000000000000000016906370a08231906024015b602060405180830381865afa158015610fe5573d6000803e3d6000fd5b505050506040513d601f19601f8201168201806040525081019061100991906122de565b905090565b600054610100900460ff161580801561102e5750600054600160ff909116105b806110485750303b158015611048575060005460ff166001145b6110ba5760405162461bcd60e51b815260206004820152602e60248201527f496e697469616c697a61626c653a20636f6e747261637420697320616c72656160448201527f647920696e697469616c697a6564000000000000000000000000000000000000606482015260840161064a565b600080547fffffffffffffffffffffffffffffffffffffffffffffffffffffffffffffff00166001179055801561111857600080547fffffffffffffffffffffffffffffffffffffffffffffffffffffffffffff00ff166101001790555b600184905560028390556000805473ffffffffffffffffffffffffffffffffffffffff80851662010000027fffffffffffffffffffff0000000000000000000000000000000000000000ffff909216919091178255604051859287927f000000000000000000000000000000000000000000000000000000000000000016917f55431516e10bd0917ebc953b5940f38069957d016c7c6bd08187700c86d995a89190a48015610f5157600080547fffffffffffffffffffffffffffffffffffffffffffffffffffffffffffff00ff169055604051600181527f7f26b83ff96e1f2b6a682f133852f6798a09c465da95921460cefb38474024989060200160405180910390a150505050565b6040517f35567e1a0000000000000000000000000000000000000000000000000000000081523060048201526000602482018190529073ffffffffffffffffffffffffffffffffffffffff7f000000000000000000000000000000000000000000000000000000000000000016906335567e1a90604401610fc8565b3373ffffffffffffffffffffffffffffffffffffffff7f000000000000000000000000000000000000000000000000000000000000000016146113245760405162461bcd60e51b815260206004820152601760248201527f6163636f756e743a206e6f7420456e747279506f696e74000000000000000000604482015260640161064a565b565b6000808473ffffffffffffffffffffffffffffffffffffffff16848460405161134f919061231b565b60006040518083038185875af1925050503d806000811461138c576040519150601f19603f3d011682016040523d82523d6000602084013e611391565b606091505b5091509150816106fa57805160208201fd5b3033146108cf5760405162461bcd60e51b815260206004820152600a60248201527f6f6e6c79206f776e657200000000000000000000000000000000000000000000604482015260640161064a565b7f4910fdfa16fed3260ed0e7147f7cc6da11a60208b5b9406d12a635614ffd91435460ff161561142a57611425836116e0565b505050565b8273ffffffffffffffffffffffffffffffffffffffff166352d1902d6040518163ffffffff1660e01b8152600401602060405180830381865afa9250505080156114af575060408051601f3d9081017fffffffffffffffffffffffffffffffffffffffffffffffffffffffffffffffe01682019092526114ac918101906122de565b60015b6115215760405162461bcd60e51b815260206004820152602e60248201527f45524331393637557067726164653a206e657720696d706c656d656e7461746960448201527f6f6e206973206e6f742055555053000000000000000000000000000000000000606482015260840161064a565b7f360894a13ba1a3210667c828492db98dca3e2076cc3735a920a3ca505d382bbc81146115b65760405162461bcd60e51b815260206004820152602960248201527f45524331393637557067726164653a20756e737570706f727465642070726f7860448201527f6961626c65555549440000000000000000000000000000000000000000000000606482015260840161064a565b506114258383836117d0565b3373ffffffffffffffffffffffffffffffffffffffff7f000000000000000000000000000000000000000000000000000000000000000016146113245760405162461bcd60e51b815260206004820152601c60248201527f6163636f756e743a206e6f742066726f6d20456e747279506f696e7400000000604482015260640161064a565b600061166061165a610140850185612038565b84610d17565b61166c575060016105f1565b50600092915050565b80156108cf5760405160009033907fffffffffffffffffffffffffffffffffffffffffffffffffffffffffffffffff90849084818181858888f193505050503d80600081146106fa576040519150601f19603f3d011682016040523d82523d6000602084013e6106fa565b73ffffffffffffffffffffffffffffffffffffffff81163b61176a5760405162461bcd60e51b815260206004820152602d60248201527f455243313936373a206e657720696d706c656d656e746174696f6e206973206e60448201527f6f74206120636f6e747261637400000000000000000000000000000000000000606482015260840161064a565b7f360894a13ba1a3210667c828492db98dca3e2076cc3735a920a3ca505d382bbc80547fffffffffffffffffffffffff00000000000000000000000000000000000000001673ffffffffffffffffffffffffffffffffffffffff92909216919091179055565b6117d9836117f5565b6000825111806117e65750805b1561142557610f518383611842565b6117fe816116e0565b60405173ffffffffffffffffffffffffffffffffffffffff8216907fbc7cd75a20ee27fd9adebab32041f755214dbc6bffa90cc0225b39da2e5c2d3b90600090a250565b60606108f183836040518060600160405280602781526020016123896027913960606000808573ffffffffffffffffffffffffffffffffffffffff168560405161188c919061231b565b600060405180830381855af49150503d80600081146118c7576040519150601f19603f3d011682016040523d82523d6000602084013e6118cc565b606091505b50915091506118dd868383876118e7565b9695505050505050565b6060831561196357825160000361195c5773ffffffffffffffffffffffffffffffffffffffff85163b61195c5760405162461bcd60e51b815260206004820152601d60248201527f416464726573733a2063616c6c20746f206e6f6e2d636f6e7472616374000000604482015260640161064a565b508161196d565b61196d8383611975565b949350505050565b8151156119855781518083602001fd5b8060405162461bcd60e51b815260040161064a9190612337565b60405180604001604052806002906020820280368337509192915050565b60405180604001604052806002905b6119d461199f565b8152602001906001900390816119cc5790505090565b73ffffffffffffffffffffffffffffffffffffffff811681146108cf57600080fd5b60008083601f840112611a1e57600080fd5b50813567ffffffffffffffff811115611a3657600080fd5b602083019150836020828501011115611a4e57600080fd5b9250929050565b60008060008060008060008060c0898b031215611a7157600080fd5b8835611a7c816119ea565b97506020890135611a8c816119ea565b96506040890135611a9c816119ea565b955060608901359450608089013567ffffffffffffffff80821115611ac057600080fd5b611acc8c838d01611a0c565b909650945060a08b0135915080821115611ae557600080fd5b50611af28b828c01611a0c565b999c989b5096995094979396929594505050565b600060208284031215611b1857600080fd5b81357fffffffff00000000000000000000000000000000000000000000000000000000811681146108f157600080fd5b600080600080600060808688031215611b6057600080fd5b8535611b6b816119ea565b94506020860135611b7b816119ea565b935060408601359250606086013567ffffffffffffffff811115611b9e57600080fd5b611baa88828901611a0c565b969995985093965092949392505050565b60008083601f840112611bcd57600080fd5b50813567ffffffffffffffff811115611be557600080fd5b6020830191508360208260051b8501011115611a4e57600080fd5b60008060008060408587031215611c1657600080fd5b843567ffffffffffffffff80821115611c2e57600080fd5b611c3a88838901611bbb565b90965094506020870135915080821115611c5357600080fd5b50611c6087828801611bbb565b95989497509550505050565b600060208284031215611c7e57600080fd5b81356108f1816119ea565b600080600060608486031215611c9e57600080fd5b833567ffffffffffffffff811115611cb557600080fd5b84016101608187031215611cc857600080fd5b95602085013595506040909401359392505050565b60008060408385031215611cf057600080fd5b8235611cfb816119ea565b946020939093013593505050565b7f4e487b7100000000000000000000000000000000000000000000000000000000600052604160045260246000fd5b60008060408385031215611d4b57600080fd5b8235611d56816119ea565b9150602083013567ffffffffffffffff80821115611d7357600080fd5b818501915085601f830112611d8757600080fd5b813581811115611d9957611d99611d09565b604051601f82017fffffffffffffffffffffffffffffffffffffffffffffffffffffffffffffffe0908116603f01168101908382118183101715611ddf57611ddf611d09565b81604052828152886020848701011115611df857600080fd5b8260208601602083013760006020848301015280955050505050509250929050565b600080600060408486031215611e2f57600080fd5b833567ffffffffffffffff811115611e4657600080fd5b611e5286828701611a0c565b909790965060209590950135949350505050565b60008060008060608587031215611e7c57600080fd5b8435611e87816119ea565b935060208501359250604085013567ffffffffffffffff811115611eaa57600080fd5b611c6087828801611a0c565b60008060008060008060008060a0898b031215611ed257600080fd5b8835611edd816119ea565b97506020890135611eed816119ea565b9650604089013567ffffffffffffffff80821115611f0a57600080fd5b611f168c838d01611bbb565b909850965060608b0135915080821115611f2f57600080fd5b611f3b8c838d01611bbb565b909650945060808b0135915080821115611ae557600080fd5b600080600060608486031215611f6957600080fd5b83359250602084013591506040840135611f82816119ea565b809150509250925092565b60008060008060008060a08789031215611fa657600080fd5b8635611fb1816119ea565b95506020870135611fc1816119ea565b94506040870135935060608701359250608087013567ffffffffffffffff811115611feb57600080fd5b611ff789828a01611a0c565b979a9699509497509295939492505050565b7f4e487b7100000000000000000000000000000000000000000000000000000000600052603260045260246000fd5b60008083357fffffffffffffffffffffffffffffffffffffffffffffffffffffffffffffffe184360301811261206d57600080fd5b83018035915067ffffffffffffffff82111561208857600080fd5b602001915036819003821315611a4e57600080fd5b60007fffffffffffffffffffffffffffffffffffffffffffffffffffffffffffffffff82036120f5577f4e487b7100000000000000000000000000000000000000000000000000000000600052601160045260246000fd5b5060010190565b6000808585111561210c57600080fd5b8386111561211957600080fd5b5050820193919092039150565b600080600080600080600080610100898b03121561214357600080fd5b505086359860208801359850604088013597606081013597506080810135965060a0810135955060c0810135945060e0013592509050565b803560208310156105f1577fffffffffffffffffffffffffffffffffffffffffffffffffffffffffffffffff602084900360031b1b1692915050565b6000826121ed577f4e487b7100000000000000000000000000000000000000000000000000000000600052601260045260246000fd5b500690565b8060005b6002811015610f515781518452602093840193909101906001016121f6565b610180810161222482876121f2565b60408083018660005b600280821061223c5750612277565b82518460005b83811015612260578251825260209283019290910190600101612242565b50505092840192506020919091019060010161222d565b5050505061228860c08301856121f2565b61010082018360005b60048110156122b0578151835260209283019290910190600101612291565b50505095945050505050565b6000602082840312156122ce57600080fd5b815180151581146108f157600080fd5b6000602082840312156122f057600080fd5b5051919050565b60005b838110156123125781810151838201526020016122fa565b50506000910152565b6000825161232d8184602087016122f7565b9190910192915050565b60208152600082518060208401526123568160408501602087016122f7565b601f017fffffffffffffffffffffffffffffffffffffffffffffffffffffffffffffffe016919091016040019291505056fe416464726573733a206c6f772d6c6576656c2064656c65676174652063616c6c206661696c6564a2646970667358221220fbb73c2c54c287aeb322d25def73b67073c5923037665b7c44447ad9102f3ba264736f6c63430008110033",
  "devdoc": {
    "kind": "dev",
    "methods": {
      "owner()": {
        "details": "Returns the address of the current owner."
      },
      "renounceOwnership()": {
        "details": "Leaves the contract without owner. It will not be possible to call `onlyOwner` functions. Can only be called by the current owner. NOTE: Renouncing ownership will leave the contract without an owner, thereby disabling any functionality that is only available to the owner."
      },
      "transferOwnership(address)": {
        "details": "Transfers ownership of the contract to a new account (`newOwner`). Can only be called by the current owner."
      }
    },
    "version": 1
  },
  "userdoc": {
    "kind": "user",
    "methods": {},
    "version": 1
  },
  "storageLayout": {
    "storage": [
      {
        "astId": 1087,
        "contract": "src/ZKPassAccountFactory.sol:ZKPassAccountFactory",
        "label": "_owner",
        "offset": 0,
        "slot": "0",
        "type": "t_address"
      },
      {
        "astId": 3033,
        "contract": "src/ZKPassAccountFactory.sol:ZKPassAccountFactory",
        "label": "baseName",
        "offset": 0,
        "slot": "1",
        "type": "t_string_storage"
      }
    ],
    "types": {
      "t_address": {
        "encoding": "inplace",
        "label": "address",
        "numberOfBytes": "20"
      },
      "t_string_storage": {
        "encoding": "bytes",
        "label": "string",
        "numberOfBytes": "32"
      }
    }
  }
}