{
  "address": "0x6367701bcD43C89E541bC1C19be872f7c3378821",
  "abi": [
    {
      "inputs": [
        {
          "internalType": "contract IEntryPoint",
          "name": "_entryPoint",
          "type": "address"
        },
        {
          "internalType": "contract INameWrapper",
          "name": "_nameWrapper",
          "type": "address"
        },
        {
          "internalType": "contract IResolver",
          "name": "_resolver",
          "type": "address"
        },
        {
          "internalType": "contract IReverseRegistrar",
          "name": "_reverseRegistrar",
          "type": "address"
        },
        {
          "internalType": "string",
          "name": "_baseName",
          "type": "string"
        },
        {
          "internalType": "bytes32",
          "name": "_baseNode",
          "type": "bytes32"
        }
      ],
      "stateMutability": "nonpayable",
      "type": "constructor"
    },
    {
      "anonymous": false,
      "inputs": [
        {
          "indexed": true,
          "internalType": "address",
          "name": "previousOwner",
          "type": "address"
        },
        {
          "indexed": true,
          "internalType": "address",
          "name": "newOwner",
          "type": "address"
        }
      ],
      "name": "OwnershipTransferred",
      "type": "event"
    },
    {
      "inputs": [],
      "name": "accountImplementation",
      "outputs": [
        {
          "internalType": "contract ZKPassAccount",
          "name": "",
          "type": "address"
        }
      ],
      "stateMutability": "view",
      "type": "function"
    },
    {
      "inputs": [],
      "name": "baseName",
      "outputs": [
        {
          "internalType": "string",
          "name": "",
          "type": "string"
        }
      ],
      "stateMutability": "view",
      "type": "function"
    },
    {
      "inputs": [],
      "name": "baseNode",
      "outputs": [
        {
          "internalType": "bytes32",
          "name": "",
          "type": "bytes32"
        }
      ],
      "stateMutability": "view",
      "type": "function"
    },
    {
      "inputs": [
        {
          "internalType": "string",
          "name": "label",
          "type": "string"
        }
      ],
      "name": "createAccount",
      "outputs": [
        {
          "internalType": "contract ZKPassAccount",
          "name": "ret",
          "type": "address"
        }
      ],
      "stateMutability": "nonpayable",
      "type": "function"
    },
    {
      "inputs": [
        {
          "internalType": "string",
          "name": "label",
          "type": "string"
        }
      ],
      "name": "getAddress",
      "outputs": [
        {
          "internalType": "address",
          "name": "",
          "type": "address"
        }
      ],
      "stateMutability": "view",
      "type": "function"
    },
    {
      "inputs": [],
      "name": "nameWrapper",
      "outputs": [
        {
          "internalType": "contract INameWrapper",
          "name": "",
          "type": "address"
        }
      ],
      "stateMutability": "view",
      "type": "function"
    },
    {
      "inputs": [
        {
          "internalType": "address",
          "name": "",
          "type": "address"
        },
        {
          "internalType": "address",
          "name": "",
          "type": "address"
        },
        {
          "internalType": "uint256",
          "name": "",
          "type": "uint256"
        },
        {
          "internalType": "uint256",
          "name": "",
          "type": "uint256"
        },
        {
          "internalType": "bytes",
          "name": "",
          "type": "bytes"
        }
      ],
      "name": "onERC1155Received",
      "outputs": [
        {
          "internalType": "bytes4",
          "name": "",
          "type": "bytes4"
        }
      ],
      "stateMutability": "pure",
      "type": "function"
    },
    {
      "inputs": [],
      "name": "owner",
      "outputs": [
        {
          "internalType": "address",
          "name": "",
          "type": "address"
        }
      ],
      "stateMutability": "view",
      "type": "function"
    },
    {
      "inputs": [],
      "name": "renounceOwnership",
      "outputs": [],
      "stateMutability": "nonpayable",
      "type": "function"
    },
    {
      "inputs": [],
      "name": "resolver",
      "outputs": [
        {
          "internalType": "contract IResolver",
          "name": "",
          "type": "address"
        }
      ],
      "stateMutability": "view",
      "type": "function"
    },
    {
      "inputs": [],
      "name": "reverseRegistrar",
      "outputs": [
        {
          "internalType": "contract IReverseRegistrar",
          "name": "",
          "type": "address"
        }
      ],
      "stateMutability": "view",
      "type": "function"
    },
    {
      "inputs": [
        {
          "internalType": "address",
          "name": "newOwner",
          "type": "address"
        }
      ],
      "name": "transferOwnership",
      "outputs": [],
      "stateMutability": "nonpayable",
      "type": "function"
    }
  ],
  "transactionHash": "0x943bd52770ba4d543cf9267a12759526518bd6cc12d709e492483408479c2485",
  "args": [
    "0x16653fF93F0e5fEF85CE46862562a4c58B05435E",
    "0x92f0926350268a0147E36c4Dfbc4c72Eb11696cF",
    "0x919f2508389c59fe6E896f80c2B70ff53877942B",
    "0x5A54492239cA85a6d17E5FC11441B8545ee8980b",
    ".iopay.io",
    "0x7b52968c6848f012be0c3c9e6243be1ce13bca4c1da73062dff9af15973f89d9"
  ],
  "numDeployments": 2,
  "solcInputHash": "662ff06023ba0274f25479795987c116",
  "bytecode": "0x6101206040523480156200001257600080fd5b5060405162003cfd38038062003cfd83398101604081905262000035916200014f565b6200004033620000c2565b60016200004e838262000312565b506001600160a01b0380861660805283811660c052841660a0526040518690620000789062000112565b6001600160a01b039091168152602001604051809103906000f080158015620000a5573d6000803e3d6000fd5b506001600160a01b031660e0526101005250620003de9350505050565b600080546001600160a01b038381166001600160a01b0319831681178455604051919092169283917f8be0079c531659141344cd1fd0a4f28419497f9722a3daafe3b4186f6b6457e09190a35050565b611dac8062001f5183390190565b6001600160a01b03811681146200013657600080fd5b50565b634e487b7160e01b600052604160045260246000fd5b60008060008060008060c087890312156200016957600080fd5b8651620001768162000120565b809650506020808801516200018b8162000120565b60408901519096506200019e8162000120565b6060890151909550620001b18162000120565b60808901519094506001600160401b0380821115620001cf57600080fd5b818a0191508a601f830112620001e457600080fd5b815181811115620001f957620001f962000139565b604051601f8201601f19908116603f0116810190838211818310171562000224576200022462000139565b816040528281528d868487010111156200023d57600080fd5b600093505b8284101562000261578484018601518185018701529285019262000242565b600086848301015280975050505050505060a087015190509295509295509295565b600181811c908216806200029857607f821691505b602082108103620002b957634e487b7160e01b600052602260045260246000fd5b50919050565b601f8211156200030d57600081815260208120601f850160051c81016020861015620002e85750805b601f850160051c820191505b818110156200030957828155600101620002f4565b5050505b505050565b81516001600160401b038111156200032e576200032e62000139565b62000346816200033f845462000283565b84620002bf565b602080601f8311600181146200037e5760008415620003655750858301515b600019600386901b1c1916600185901b17855562000309565b600085815260208120601f198616915b82811015620003af578886015182559484019460019091019084016200038e565b5085821015620003ce5787850151600019600388901b60f8161c191681555b5050505050600190811b01905550565b60805160a05160c05160e05161010051611ad46200047d6000396000818161022c015281816103bd015281816106d4015281816109770152610a28015260008181610142015281816105b00152610aae0152600081816101a6015261082201526000818160f0015281816106fa015281816107c201526108600152600081816101ed0152818161040f015281816106a601526109490152611ad46000f3fe60806040523480156200001157600080fd5b5060043610620000e55760003560e01c80638da5cb5b116200008b578063ddf7fcb01162000062578063ddf7fcb01462000226578063f23a6e61146200025d578063f2fde38b14620002cb57600080fd5b80638da5cb5b14620001c8578063a8e5fbc014620001e7578063bf40fac1146200020f57600080fd5b8063298daf5b11620000c0578063298daf5b146200017d578063715018a614620001945780638086985314620001a057600080fd5b806304f3bcec14620000ea57806311464fbe146200013c578063150306331462000164575b600080fd5b620001127f000000000000000000000000000000000000000000000000000000000000000081565b60405173ffffffffffffffffffffffffffffffffffffffff90911681526020015b60405180910390f35b620001127f000000000000000000000000000000000000000000000000000000000000000081565b6200016e620002e2565b60405162000133919062000dd5565b620001126200018e36600462000e19565b62000378565b6200019e620009ff565b005b620001127f000000000000000000000000000000000000000000000000000000000000000081565b60005473ffffffffffffffffffffffffffffffffffffffff1662000112565b620001127f000000000000000000000000000000000000000000000000000000000000000081565b620001126200022036600462000e19565b62000a17565b6200024e7f000000000000000000000000000000000000000000000000000000000000000081565b60405190815260200162000133565b620002996200026e36600462000ef7565b7ff23a6e61000000000000000000000000000000000000000000000000000000009695505050505050565b6040517fffffffff00000000000000000000000000000000000000000000000000000000909116815260200162000133565b6200019e620002dc36600462000faa565b62000b7e565b60018054620002f19062000fca565b80601f01602080910402602001604051908101604052809291908181526020018280546200031f9062000fca565b8015620003705780601f10620003445761010080835404028352916020019162000370565b820191906000526020600020905b8154815290600101906020018083116200035257829003601f168201915b505050505081565b600080620003868362000a17565b905073ffffffffffffffffffffffffffffffffffffffff81163b8015620003ae575092915050565b835160208501206000620004097f000000000000000000000000000000000000000000000000000000000000000083604080516020808201949094528082019290925280518083038201815260609092019052805191012090565b905060007f000000000000000000000000000000000000000000000000000000000000000073ffffffffffffffffffffffffffffffffffffffff16636f14a0d16040518163ffffffff1660e01b8152600401602060405180830381865afa15801562000479573d6000803e3d6000fd5b505050506040513d601f19601f820116820180604052508101906200049f91906200101f565b6040517ff79fe5380000000000000000000000000000000000000000000000000000000081526004810184905290915073ffffffffffffffffffffffffffffffffffffffff82169063f79fe53890602401602060405180830381865afa1580156200050e573d6000803e3d6000fd5b505050506040513d601f19601f820116820180604052508101906200053491906200103f565b15620005a1576040517f08c379a000000000000000000000000000000000000000000000000000000000815260206004820152601760248201527f6e616d6520616c7265616479207265676973746572656400000000000000000060448201526064015b60405180910390fd5b604051602481018390526000907f00000000000000000000000000000000000000000000000000000000000000009060440160408051601f198184030181529181526020820180517bffffffffffffffffffffffffffffffffffffffffffffffffffffffff167f9498bd710000000000000000000000000000000000000000000000000000000017905251620006379062000d73565b6200064492919062001063565b8190604051809103906000f590508015801562000665573d6000803e3d6000fd5b506040517f24c1af4400000000000000000000000000000000000000000000000000000000815290965073ffffffffffffffffffffffffffffffffffffffff7f000000000000000000000000000000000000000000000000000000000000000016906324c1af44906200072f907f0000000000000000000000000000000000000000000000000000000000000000908b9030907f00000000000000000000000000000000000000000000000000000000000000009060009081906402540be3ff9060040162001094565b6020604051808303816000875af11580156200074f573d6000803e3d6000fd5b505050506040513d601f19601f8201168201806040525081019062000775919062001104565b506040517fd5fa2b000000000000000000000000000000000000000000000000000000000081526004810183905273ffffffffffffffffffffffffffffffffffffffff87811660248301527f0000000000000000000000000000000000000000000000000000000000000000169063d5fa2b0090604401600060405180830381600087803b1580156200080757600080fd5b505af11580156200081c573d6000803e3d6000fd5b505050507f000000000000000000000000000000000000000000000000000000000000000073ffffffffffffffffffffffffffffffffffffffff16637a806d6b87887f00000000000000000000000000000000000000000000000000000000000000008b6001604051602001620008959291906200111e565b6040516020818303038152906040526040518563ffffffff1660e01b8152600401620008c5949392919062001213565b6020604051808303816000875af1158015620008e5573d6000803e3d6000fd5b505050506040513d601f19601f820116820180604052508101906200090b919062001104565b506040517fc658e08600000000000000000000000000000000000000000000000000000000815273ffffffffffffffffffffffffffffffffffffffff7f0000000000000000000000000000000000000000000000000000000000000000169063c658e08690620009ae907f0000000000000000000000000000000000000000000000000000000000000000908b908b906000906402540be3ff9060040162001260565b6020604051808303816000875af1158015620009ce573d6000803e3d6000fd5b505050506040513d601f19601f82011682018060405250810190620009f4919062001104565b505050505050919050565b62000a0962000c3b565b62000a15600062000cbe565b565b805160208201206000908162000a747f000000000000000000000000000000000000000000000000000000000000000083604080516020808201949094528082019290925280518083038201815260609092019052805191012090565b905062000b766000801b6040518060200162000a909062000d73565b601f1982820381018352601f909101166040819052602481018590527f00000000000000000000000000000000000000000000000000000000000000009060440160408051601f19818403018152918152602080830180517bffffffffffffffffffffffffffffffffffffffffffffffffffffffff167f9498bd7100000000000000000000000000000000000000000000000000000000179052905162000b3a9392910162001063565b60408051601f198184030181529082905262000b5a9291602001620012be565b6040516020818303038152906040528051906020012062000d33565b949350505050565b62000b8862000c3b565b73ffffffffffffffffffffffffffffffffffffffff811662000c2d576040517f08c379a000000000000000000000000000000000000000000000000000000000815260206004820152602660248201527f4f776e61626c653a206e6577206f776e657220697320746865207a65726f206160448201527f6464726573730000000000000000000000000000000000000000000000000000606482015260840162000598565b62000c388162000cbe565b50565b60005473ffffffffffffffffffffffffffffffffffffffff16331462000a15576040517f08c379a000000000000000000000000000000000000000000000000000000000815260206004820181905260248201527f4f776e61626c653a2063616c6c6572206973206e6f7420746865206f776e6572604482015260640162000598565b6000805473ffffffffffffffffffffffffffffffffffffffff8381167fffffffffffffffffffffffff0000000000000000000000000000000000000000831681178455604051919092169283917f8be0079c531659141344cd1fd0a4f28419497f9722a3daafe3b4186f6b6457e09190a35050565b600062000d4283833062000d49565b9392505050565b6000604051836040820152846020820152828152600b8101905060ff815360559020949350505050565b6107ad80620012f283390190565b60005b8381101562000d9e57818101518382015260200162000d84565b50506000910152565b6000815180845262000dc181602086016020860162000d81565b601f01601f19169290920160200192915050565b60208152600062000d42602083018462000da7565b7f4e487b7100000000000000000000000000000000000000000000000000000000600052604160045260246000fd5b60006020828403121562000e2c57600080fd5b813567ffffffffffffffff8082111562000e4557600080fd5b818401915084601f83011262000e5a57600080fd5b81358181111562000e6f5762000e6f62000dea565b604051601f8201601f19908116603f0116810190838211818310171562000e9a5762000e9a62000dea565b8160405282815287602084870101111562000eb457600080fd5b826020860160208301376000928101602001929092525095945050505050565b73ffffffffffffffffffffffffffffffffffffffff8116811462000c3857600080fd5b60008060008060008060a0878903121562000f1157600080fd5b863562000f1e8162000ed4565b9550602087013562000f308162000ed4565b94506040870135935060608701359250608087013567ffffffffffffffff8082111562000f5c57600080fd5b818901915089601f83011262000f7157600080fd5b81358181111562000f8157600080fd5b8a602082850101111562000f9457600080fd5b6020830194508093505050509295509295509295565b60006020828403121562000fbd57600080fd5b813562000d428162000ed4565b600181811c9082168062000fdf57607f821691505b60208210810362001019577f4e487b7100000000000000000000000000000000000000000000000000000000600052602260045260246000fd5b50919050565b6000602082840312156200103257600080fd5b815162000d428162000ed4565b6000602082840312156200105257600080fd5b8151801515811462000d4257600080fd5b73ffffffffffffffffffffffffffffffffffffffff8316815260406020820152600062000b76604083018462000da7565b87815260e060208201526000620010af60e083018962000da7565b73ffffffffffffffffffffffffffffffffffffffff978816604084015295909616606082015267ffffffffffffffff938416608082015263ffffffff9290921660a083015290911660c0909101529392505050565b6000602082840312156200111757600080fd5b5051919050565b60008351602062001133828583890162000d81565b845491840191600090600181811c90808316806200115257607f831692505b858310810362001189577f4e487b710000000000000000000000000000000000000000000000000000000085526022600452602485fd5b808015620011a05760018114620011d45762001203565b7fffffffffffffffffffffffffffffffffffffffffffffffffffffffffffffff008516885283151584028801955062001203565b60008b81526020902060005b85811015620011fb5781548a820152908401908801620011e0565b505083880195505b50939a9950505050505050505050565b600073ffffffffffffffffffffffffffffffffffffffff808716835280861660208401528085166040840152506080606083015262001256608083018462000da7565b9695505050505050565b85815260a0602082015260006200127b60a083018762000da7565b73ffffffffffffffffffffffffffffffffffffffff9590951660408301525063ffffffff92909216606083015267ffffffffffffffff1660809091015292915050565b60008351620012d281846020880162000d81565b835190830190620012e881836020880162000d81565b0194935050505056fe60806040526040516107ad3803806107ad83398101604081905261002291610319565b61002e82826000610035565b5050610436565b61003e8361006b565b60008251118061004b5750805b156100665761006483836100ab60201b6100291760201c565b505b505050565b610074816100d7565b6040516001600160a01b038216907fbc7cd75a20ee27fd9adebab32041f755214dbc6bffa90cc0225b39da2e5c2d3b90600090a250565b60606100d08383604051806060016040528060278152602001610786602791396101a9565b9392505050565b6100ea8161022260201b6100551760201c565b6101515760405162461bcd60e51b815260206004820152602d60248201527f455243313936373a206e657720696d706c656d656e746174696f6e206973206e60448201526c1bdd08184818dbdb9d1c9858dd609a1b60648201526084015b60405180910390fd5b806101887f360894a13ba1a3210667c828492db98dca3e2076cc3735a920a3ca505d382bbc60001b61023160201b6100711760201c565b80546001600160a01b0319166001600160a01b039290921691909117905550565b6060600080856001600160a01b0316856040516101c691906103e7565b600060405180830381855af49150503d8060008114610201576040519150601f19603f3d011682016040523d82523d6000602084013e610206565b606091505b50909250905061021886838387610234565b9695505050505050565b6001600160a01b03163b151590565b90565b606083156102a357825160000361029c576001600160a01b0385163b61029c5760405162461bcd60e51b815260206004820152601d60248201527f416464726573733a2063616c6c20746f206e6f6e2d636f6e74726163740000006044820152606401610148565b50816102ad565b6102ad83836102b5565b949350505050565b8151156102c55781518083602001fd5b8060405162461bcd60e51b81526004016101489190610403565b634e487b7160e01b600052604160045260246000fd5b60005b838110156103105781810151838201526020016102f8565b50506000910152565b6000806040838503121561032c57600080fd5b82516001600160a01b038116811461034357600080fd5b60208401519092506001600160401b038082111561036057600080fd5b818501915085601f83011261037457600080fd5b815181811115610386576103866102df565b604051601f8201601f19908116603f011681019083821181831017156103ae576103ae6102df565b816040528281528860208487010111156103c757600080fd5b6103d88360208301602088016102f5565b80955050505050509250929050565b600082516103f98184602087016102f5565b9190910192915050565b60208152600082518060208401526104228160408501602087016102f5565b601f01601f19169190910160400192915050565b610341806104456000396000f3fe60806040523661001357610011610017565b005b6100115b610027610022610074565b6100b9565b565b606061004e83836040518060600160405280602781526020016102e5602791396100dd565b9392505050565b73ffffffffffffffffffffffffffffffffffffffff163b151590565b90565b60006100b47f360894a13ba1a3210667c828492db98dca3e2076cc3735a920a3ca505d382bbc5473ffffffffffffffffffffffffffffffffffffffff1690565b905090565b3660008037600080366000845af43d6000803e8080156100d8573d6000f35b3d6000fd5b60606000808573ffffffffffffffffffffffffffffffffffffffff16856040516101079190610277565b600060405180830381855af49150503d8060008114610142576040519150601f19603f3d011682016040523d82523d6000602084013e610147565b606091505b509150915061015886838387610162565b9695505050505050565b606083156101fd5782516000036101f65773ffffffffffffffffffffffffffffffffffffffff85163b6101f6576040517f08c379a000000000000000000000000000000000000000000000000000000000815260206004820152601d60248201527f416464726573733a2063616c6c20746f206e6f6e2d636f6e747261637400000060448201526064015b60405180910390fd5b5081610207565b610207838361020f565b949350505050565b81511561021f5781518083602001fd5b806040517f08c379a00000000000000000000000000000000000000000000000000000000081526004016101ed9190610293565b60005b8381101561026e578181015183820152602001610256565b50506000910152565b60008251610289818460208701610253565b9190910192915050565b60208152600082518060208401526102b2816040850160208701610253565b601f017fffffffffffffffffffffffffffffffffffffffffffffffffffffffffffffffe016919091016040019291505056fe416464726573733a206c6f772d6c6576656c2064656c65676174652063616c6c206661696c6564a26469706673582212208c8e215c4f138670f5b128026bfe0933b1f89c0477988e2c7ebbc6b4dfe6208264736f6c63430008110033416464726573733a206c6f772d6c6576656c2064656c65676174652063616c6c206661696c6564a2646970667358221220b82763e2e37259f91478d5758329ac5986409882efab36c7dcb50cf8266d563664736f6c6343000811003360c06040523060805234801561001457600080fd5b50604051611dac380380611dac83398101604081905261003391610044565b6001600160a01b031660a052610074565b60006020828403121561005657600080fd5b81516001600160a01b038116811461006d57600080fd5b9392505050565b60805160a051611ccd6100df600039600081816102f4015281816107d70152818161086201528181610da801528181610e6601528181610ead01526111890152600081816105fc0152818161069201528181610926015281816109bc0152610aeb0152611ccd6000f3fe6080604052600436106101115760003560e01c80634f1ef286116100a5578063b61d27f611610074578063c399ec8811610059578063c399ec8814610386578063d087d2881461039b578063f23a6e61146103b057600080fd5b8063b61d27f61461031e578063bc197c811461033e57600080fd5b80634f1ef2861461028557806352d1902d146102985780639498bd71146102ad578063b0d691fe146102cd57600080fd5b80633659cfe6116100e15780633659cfe61461020f5780633a871cdd1461022f5780634a58db191461025d5780634d44560d1461026557600080fd5b806223de291461011d57806301ffc9a714610144578063150b7a021461017957806318dfb3c7146101ef57600080fd5b3661011857005b600080fd5b34801561012957600080fd5b5061014261013836600461158b565b5050505050505050565b005b34801561015057600080fd5b5061016461015f36600461163c565b6103f6565b60405190151581526020015b60405180910390f35b34801561018557600080fd5b506101be61019436600461167e565b7f150b7a020000000000000000000000000000000000000000000000000000000095945050505050565b6040517fffffffff000000000000000000000000000000000000000000000000000000009091168152602001610170565b3480156101fb57600080fd5b5061014261020a366004611736565b6104db565b34801561021b57600080fd5b5061014261022a3660046117a2565b6105e5565b34801561023b57600080fd5b5061024f61024a3660046117bf565b6107b6565b604051908152602001610170565b6101426107d3565b34801561027157600080fd5b50610142610280366004611813565b610860565b61014261029336600461186e565b61090f565b3480156102a457600080fd5b5061024f610ad1565b3480156102b957600080fd5b506101426102c8366004611950565b610ba3565b3480156102d957600080fd5b5060405173ffffffffffffffffffffffffffffffffffffffff7f0000000000000000000000000000000000000000000000000000000000000000168152602001610170565b34801561032a57600080fd5b50610142610339366004611969565b610d13565b34801561034a57600080fd5b506101be6103593660046119b9565b7fbc197c810000000000000000000000000000000000000000000000000000000098975050505050505050565b34801561039257600080fd5b5061024f610d62565b3480156103a757600080fd5b5061024f610e19565b3480156103bc57600080fd5b506101be6103cb366004611a57565b7ff23a6e61000000000000000000000000000000000000000000000000000000009695505050505050565b60007fffffffff0000000000000000000000000000000000000000000000000000000082167f150b7a0200000000000000000000000000000000000000000000000000000000148061048957507fffffffff0000000000000000000000000000000000000000000000000000000082167f4e2312e000000000000000000000000000000000000000000000000000000000145b806104d557507fffffffff0000000000000000000000000000000000000000000000000000000082167f01ffc9a700000000000000000000000000000000000000000000000000000000145b92915050565b6104e3610e95565b8281146105375760405162461bcd60e51b815260206004820152601360248201527f77726f6e67206172726179206c656e677468730000000000000000000000000060448201526064015b60405180910390fd5b60005b838110156105de576105cc85858381811061055757610557611ad3565b905060200201602081019061056c91906117a2565b600085858581811061058057610580611ad3565b90506020028101906105929190611b02565b8080601f016020809104026020016040519081016040528093929190818152602001838380828437600092019190915250610f1c92505050565b806105d681611b67565b91505061053a565b5050505050565b73ffffffffffffffffffffffffffffffffffffffff7f00000000000000000000000000000000000000000000000000000000000000001630036106905760405162461bcd60e51b815260206004820152602c60248201527f46756e6374696f6e206d7573742062652063616c6c6564207468726f7567682060448201527f64656c656761746563616c6c0000000000000000000000000000000000000000606482015260840161052e565b7f000000000000000000000000000000000000000000000000000000000000000073ffffffffffffffffffffffffffffffffffffffff166107057f360894a13ba1a3210667c828492db98dca3e2076cc3735a920a3ca505d382bbc5473ffffffffffffffffffffffffffffffffffffffff1690565b73ffffffffffffffffffffffffffffffffffffffff161461078e5760405162461bcd60e51b815260206004820152602c60248201527f46756e6374696f6e206d7573742062652063616c6c6564207468726f7567682060448201527f6163746976652070726f78790000000000000000000000000000000000000000606482015260840161052e565b61079781610f99565b604080516000808252602082019092526107b391839190610fa1565b50565b60006107c0611171565b5060006107cc826111f6565b9392505050565b60007f000000000000000000000000000000000000000000000000000000000000000073ffffffffffffffffffffffffffffffffffffffff163460405160006040518083038185875af1925050503d806000811461084d576040519150601f19603f3d011682016040523d82523d6000602084013e610852565b606091505b50509050806107b357600080fd5b7f00000000000000000000000000000000000000000000000000000000000000006040517f205c287800000000000000000000000000000000000000000000000000000000815273ffffffffffffffffffffffffffffffffffffffff848116600483015260248201849052919091169063205c287890604401600060405180830381600087803b1580156108f357600080fd5b505af1158015610907573d6000803e3d6000fd5b505050505050565b73ffffffffffffffffffffffffffffffffffffffff7f00000000000000000000000000000000000000000000000000000000000000001630036109ba5760405162461bcd60e51b815260206004820152602c60248201527f46756e6374696f6e206d7573742062652063616c6c6564207468726f7567682060448201527f64656c656761746563616c6c0000000000000000000000000000000000000000606482015260840161052e565b7f000000000000000000000000000000000000000000000000000000000000000073ffffffffffffffffffffffffffffffffffffffff16610a2f7f360894a13ba1a3210667c828492db98dca3e2076cc3735a920a3ca505d382bbc5473ffffffffffffffffffffffffffffffffffffffff1690565b73ffffffffffffffffffffffffffffffffffffffff1614610ab85760405162461bcd60e51b815260206004820152602c60248201527f46756e6374696f6e206d7573742062652063616c6c6564207468726f7567682060448201527f6163746976652070726f78790000000000000000000000000000000000000000606482015260840161052e565b610ac182610f99565b610acd82826001610fa1565b5050565b60003073ffffffffffffffffffffffffffffffffffffffff7f00000000000000000000000000000000000000000000000000000000000000001614610b7e5760405162461bcd60e51b815260206004820152603860248201527f555550535570677261646561626c653a206d757374206e6f742062652063616c60448201527f6c6564207468726f7567682064656c656761746563616c6c0000000000000000606482015260840161052e565b507f360894a13ba1a3210667c828492db98dca3e2076cc3735a920a3ca505d382bbc90565b600054610100900460ff1615808015610bc35750600054600160ff909116105b80610bdd5750303b158015610bdd575060005460ff166001145b610c4f5760405162461bcd60e51b815260206004820152602e60248201527f496e697469616c697a61626c653a20636f6e747261637420697320616c72656160448201527f647920696e697469616c697a6564000000000000000000000000000000000000606482015260840161052e565b600080547fffffffffffffffffffffffffffffffffffffffffffffffffffffffffffffff001660011790558015610cad57600080547fffffffffffffffffffffffffffffffffffffffffffffffffffffffffffff00ff166101001790555b8015610acd57600080547fffffffffffffffffffffffffffffffffffffffffffffffffffffffffffff00ff169055604051600181527f7f26b83ff96e1f2b6a682f133852f6798a09c465da95921460cefb38474024989060200160405180910390a15050565b610d1b610e95565b610d5c848484848080601f016020809104026020016040519081016040528093929190818152602001838380828437600092019190915250610f1c92505050565b50505050565b6040517f70a0823100000000000000000000000000000000000000000000000000000000815230600482015260009073ffffffffffffffffffffffffffffffffffffffff7f000000000000000000000000000000000000000000000000000000000000000016906370a08231906024015b602060405180830381865afa158015610df0573d6000803e3d6000fd5b505050506040513d601f19601f82011682018060405250810190610e149190611bc6565b905090565b6040517f35567e1a0000000000000000000000000000000000000000000000000000000081523060048201526000602482018190529073ffffffffffffffffffffffffffffffffffffffff7f000000000000000000000000000000000000000000000000000000000000000016906335567e1a90604401610dd3565b3373ffffffffffffffffffffffffffffffffffffffff7f00000000000000000000000000000000000000000000000000000000000000001614610f1a5760405162461bcd60e51b815260206004820152601760248201527f6163636f756e743a206e6f7420456e747279506f696e74000000000000000000604482015260640161052e565b565b6000808473ffffffffffffffffffffffffffffffffffffffff168484604051610f459190611c03565b60006040518083038185875af1925050503d8060008114610f82576040519150601f19603f3d011682016040523d82523d6000602084013e610f87565b606091505b5091509150816105de57805160208201fd5b6107b3610e95565b7f4910fdfa16fed3260ed0e7147f7cc6da11a60208b5b9406d12a635614ffd91435460ff1615610fd957610fd483611261565b505050565b8273ffffffffffffffffffffffffffffffffffffffff166352d1902d6040518163ffffffff1660e01b8152600401602060405180830381865afa92505050801561105e575060408051601f3d9081017fffffffffffffffffffffffffffffffffffffffffffffffffffffffffffffffe016820190925261105b91810190611bc6565b60015b6110d05760405162461bcd60e51b815260206004820152602e60248201527f45524331393637557067726164653a206e657720696d706c656d656e7461746960448201527f6f6e206973206e6f742055555053000000000000000000000000000000000000606482015260840161052e565b7f360894a13ba1a3210667c828492db98dca3e2076cc3735a920a3ca505d382bbc81146111655760405162461bcd60e51b815260206004820152602960248201527f45524331393637557067726164653a20756e737570706f727465642070726f7860448201527f6961626c65555549440000000000000000000000000000000000000000000000606482015260840161052e565b50610fd4838383611351565b3373ffffffffffffffffffffffffffffffffffffffff7f00000000000000000000000000000000000000000000000000000000000000001614610f1a5760405162461bcd60e51b815260206004820152601c60248201527f6163636f756e743a206e6f742066726f6d20456e747279506f696e7400000000604482015260640161052e565b80156107b35760405160009033907fffffffffffffffffffffffffffffffffffffffffffffffffffffffffffffffff90849084818181858888f193505050503d80600081146105de576040519150601f19603f3d011682016040523d82523d6000602084013e6105de565b73ffffffffffffffffffffffffffffffffffffffff81163b6112eb5760405162461bcd60e51b815260206004820152602d60248201527f455243313936373a206e657720696d706c656d656e746174696f6e206973206e60448201527f6f74206120636f6e747261637400000000000000000000000000000000000000606482015260840161052e565b7f360894a13ba1a3210667c828492db98dca3e2076cc3735a920a3ca505d382bbc80547fffffffffffffffffffffffff00000000000000000000000000000000000000001673ffffffffffffffffffffffffffffffffffffffff92909216919091179055565b61135a83611376565b6000825111806113675750805b15610fd457610d5c83836113c3565b61137f81611261565b60405173ffffffffffffffffffffffffffffffffffffffff8216907fbc7cd75a20ee27fd9adebab32041f755214dbc6bffa90cc0225b39da2e5c2d3b90600090a250565b60606107cc8383604051806060016040528060278152602001611c716027913960606000808573ffffffffffffffffffffffffffffffffffffffff168560405161140d9190611c03565b600060405180830381855af49150503d8060008114611448576040519150601f19603f3d011682016040523d82523d6000602084013e61144d565b606091505b509150915061145e86838387611468565b9695505050505050565b606083156114e45782516000036114dd5773ffffffffffffffffffffffffffffffffffffffff85163b6114dd5760405162461bcd60e51b815260206004820152601d60248201527f416464726573733a2063616c6c20746f206e6f6e2d636f6e7472616374000000604482015260640161052e565b50816114ee565b6114ee83836114f6565b949350505050565b8151156115065781518083602001fd5b8060405162461bcd60e51b815260040161052e9190611c1f565b73ffffffffffffffffffffffffffffffffffffffff811681146107b357600080fd5b60008083601f84011261155457600080fd5b50813567ffffffffffffffff81111561156c57600080fd5b60208301915083602082850101111561158457600080fd5b9250929050565b60008060008060008060008060c0898b0312156115a757600080fd5b88356115b281611520565b975060208901356115c281611520565b965060408901356115d281611520565b955060608901359450608089013567ffffffffffffffff808211156115f657600080fd5b6116028c838d01611542565b909650945060a08b013591508082111561161b57600080fd5b506116288b828c01611542565b999c989b5096995094979396929594505050565b60006020828403121561164e57600080fd5b81357fffffffff00000000000000000000000000000000000000000000000000000000811681146107cc57600080fd5b60008060008060006080868803121561169657600080fd5b85356116a181611520565b945060208601356116b181611520565b935060408601359250606086013567ffffffffffffffff8111156116d457600080fd5b6116e088828901611542565b969995985093965092949392505050565b60008083601f84011261170357600080fd5b50813567ffffffffffffffff81111561171b57600080fd5b6020830191508360208260051b850101111561158457600080fd5b6000806000806040858703121561174c57600080fd5b843567ffffffffffffffff8082111561176457600080fd5b611770888389016116f1565b9096509450602087013591508082111561178957600080fd5b50611796878288016116f1565b95989497509550505050565b6000602082840312156117b457600080fd5b81356107cc81611520565b6000806000606084860312156117d457600080fd5b833567ffffffffffffffff8111156117eb57600080fd5b840161016081870312156117fe57600080fd5b95602085013595506040909401359392505050565b6000806040838503121561182657600080fd5b823561183181611520565b946020939093013593505050565b7f4e487b7100000000000000000000000000000000000000000000000000000000600052604160045260246000fd5b6000806040838503121561188157600080fd5b823561188c81611520565b9150602083013567ffffffffffffffff808211156118a957600080fd5b818501915085601f8301126118bd57600080fd5b8135818111156118cf576118cf61183f565b604051601f82017fffffffffffffffffffffffffffffffffffffffffffffffffffffffffffffffe0908116603f011681019083821181831017156119155761191561183f565b8160405282815288602084870101111561192e57600080fd5b8260208601602083013760006020848301015280955050505050509250929050565b60006020828403121561196257600080fd5b5035919050565b6000806000806060858703121561197f57600080fd5b843561198a81611520565b935060208501359250604085013567ffffffffffffffff8111156119ad57600080fd5b61179687828801611542565b60008060008060008060008060a0898b0312156119d557600080fd5b88356119e081611520565b975060208901356119f081611520565b9650604089013567ffffffffffffffff80821115611a0d57600080fd5b611a198c838d016116f1565b909850965060608b0135915080821115611a3257600080fd5b611a3e8c838d016116f1565b909650945060808b013591508082111561161b57600080fd5b60008060008060008060a08789031215611a7057600080fd5b8635611a7b81611520565b95506020870135611a8b81611520565b94506040870135935060608701359250608087013567ffffffffffffffff811115611ab557600080fd5b611ac189828a01611542565b979a9699509497509295939492505050565b7f4e487b7100000000000000000000000000000000000000000000000000000000600052603260045260246000fd5b60008083357fffffffffffffffffffffffffffffffffffffffffffffffffffffffffffffffe1843603018112611b3757600080fd5b83018035915067ffffffffffffffff821115611b5257600080fd5b60200191503681900382131561158457600080fd5b60007fffffffffffffffffffffffffffffffffffffffffffffffffffffffffffffffff8203611bbf577f4e487b7100000000000000000000000000000000000000000000000000000000600052601160045260246000fd5b5060010190565b600060208284031215611bd857600080fd5b5051919050565b60005b83811015611bfa578181015183820152602001611be2565b50506000910152565b60008251611c15818460208701611bdf565b9190910192915050565b6020815260008251806020840152611c3e816040850160208701611bdf565b601f017fffffffffffffffffffffffffffffffffffffffffffffffffffffffffffffffe016919091016040019291505056fe416464726573733a206c6f772d6c6576656c2064656c65676174652063616c6c206661696c6564a2646970667358221220e6a115e4b1fe6417ba03e6c160f49fdfe8b80fff29d8622335c56c9f2204d7f964736f6c63430008110033",
  "devdoc": {
    "kind": "dev",
    "methods": {
      "owner()": {
        "details": "Returns the address of the current owner."
      },
      "renounceOwnership()": {
        "details": "Leaves the contract without owner. It will not be possible to call `onlyOwner` functions. Can only be called by the current owner. NOTE: Renouncing ownership will leave the contract without an owner, thereby disabling any functionality that is only available to the owner."
      },
      "transferOwnership(address)": {
        "details": "Transfers ownership of the contract to a new account (`newOwner`). Can only be called by the current owner."
      }
    },
    "version": 1
  },
  "userdoc": {
    "kind": "user",
    "methods": {},
    "version": 1
  },
  "storageLayout": {
    "storage": [
      {
        "astId": 1087,
        "contract": "src/ZKPassAccountFactory.sol:ZKPassAccountFactory",
        "label": "_owner",
        "offset": 0,
        "slot": "0",
        "type": "t_address"
      },
      {
        "astId": 2808,
        "contract": "src/ZKPassAccountFactory.sol:ZKPassAccountFactory",
        "label": "baseName",
        "offset": 0,
        "slot": "1",
        "type": "t_string_storage"
      }
    ],
    "types": {
      "t_address": {
        "encoding": "inplace",
        "label": "address",
        "numberOfBytes": "20"
      },
      "t_string_storage": {
        "encoding": "bytes",
        "label": "string",
        "numberOfBytes": "32"
      }
    }
  }
}